{
  "address": "0x432a5Ec0d94118eE5c2ED1Eaf661C98E9b0B7128",
  "abi": [
    {
      "inputs": [],
      "stateMutability": "nonpayable",
      "type": "constructor"
    },
    {
      "inputs": [
        {
          "internalType": "uint256",
          "name": "tokenId",
          "type": "uint256"
        }
      ],
      "name": "AlreadyVoted",
      "type": "error"
    },
    {
      "inputs": [],
      "name": "EmptyArray",
      "type": "error"
    },
    {
      "inputs": [],
      "name": "InvalidInitialization",
      "type": "error"
    },
    {
      "inputs": [
        {
          "internalType": "uint256",
          "name": "optionId",
          "type": "uint256"
        }
      ],
      "name": "InvalidOption",
      "type": "error"
    },
    {
      "inputs": [],
      "name": "NotInitializing",
      "type": "error"
    },
    {
      "inputs": [
        {
          "internalType": "uint256",
          "name": "tokenId",
          "type": "uint256"
        }
      ],
      "name": "NotTokenOwner",
      "type": "error"
    },
    {
      "inputs": [],
      "name": "OnlyFactory",
      "type": "error"
    },
    {
      "inputs": [
        {
          "internalType": "address",
          "name": "owner",
          "type": "address"
        }
      ],
      "name": "OwnableInvalidOwner",
      "type": "error"
    },
    {
      "inputs": [
        {
          "internalType": "address",
          "name": "account",
          "type": "address"
        }
      ],
      "name": "OwnableUnauthorizedAccount",
      "type": "error"
    },
    {
      "inputs": [],
      "name": "Paused",
      "type": "error"
    },
    {
      "inputs": [],
      "name": "VotingTokenNotSet",
      "type": "error"
    },
    {
      "inputs": [],
      "name": "ZeroAddress",
      "type": "error"
    },
    {
      "anonymous": false,
      "inputs": [
        {
          "indexed": true,
          "internalType": "address",
          "name": "proposalAddress",
          "type": "address"
        },
        {
          "indexed": false,
          "internalType": "address",
          "name": "owner",
          "type": "address"
        },
        {
          "indexed": false,
          "internalType": "string",
          "name": "proposalName",
          "type": "string"
        },
        {
          "indexed": false,
          "internalType": "address",
          "name": "erc721Address",
          "type": "address"
        }
      ],
      "name": "InitializeProposal",
      "type": "event"
    },
    {
      "anonymous": false,
      "inputs": [
        {
          "indexed": false,
          "internalType": "uint64",
          "name": "version",
          "type": "uint64"
        }
      ],
      "name": "Initialized",
      "type": "event"
    },
    {
      "anonymous": false,
      "inputs": [
        {
          "indexed": true,
          "internalType": "address",
          "name": "previousOwner",
          "type": "address"
        },
        {
          "indexed": true,
          "internalType": "address",
          "name": "newOwner",
          "type": "address"
        }
      ],
      "name": "OwnershipTransferred",
      "type": "event"
    },
    {
      "anonymous": false,
      "inputs": [
        {
          "indexed": true,
          "internalType": "uint256",
          "name": "tokenId",
          "type": "uint256"
        },
        {
          "indexed": true,
          "internalType": "address",
          "name": "voter",
          "type": "address"
        },
        {
          "indexed": true,
          "internalType": "uint256",
          "name": "optionId",
          "type": "uint256"
        }
      ],
      "name": "ProposalVoted",
      "type": "event"
    },
    {
      "inputs": [
        {
          "internalType": "address",
          "name": "voter",
          "type": "address"
        },
        {
          "internalType": "uint256",
          "name": "tokenId",
          "type": "uint256"
        }
      ],
      "name": "canVote",
      "outputs": [
        {
          "internalType": "bool",
          "name": "",
          "type": "bool"
        }
      ],
      "stateMutability": "view",
      "type": "function"
    },
    {
      "inputs": [],
      "name": "erc721Address",
      "outputs": [
        {
          "internalType": "address",
          "name": "",
          "type": "address"
        }
      ],
      "stateMutability": "view",
      "type": "function"
    },
    {
      "inputs": [],
      "name": "factoryAddress",
      "outputs": [
        {
          "internalType": "address",
          "name": "",
          "type": "address"
        }
      ],
      "stateMutability": "view",
      "type": "function"
    },
    {
      "inputs": [
        {
          "internalType": "uint256",
          "name": "optionId",
          "type": "uint256"
        }
      ],
      "name": "getTally",
      "outputs": [
        {
          "internalType": "uint256",
          "name": "",
          "type": "uint256"
        }
      ],
      "stateMutability": "view",
      "type": "function"
    },
    {
      "inputs": [
        {
          "internalType": "uint256",
          "name": "",
          "type": "uint256"
        }
      ],
      "name": "hasVoted",
      "outputs": [
        {
          "internalType": "bool",
          "name": "",
          "type": "bool"
        }
      ],
      "stateMutability": "view",
      "type": "function"
    },
    {
      "inputs": [],
      "name": "id",
      "outputs": [
        {
          "internalType": "uint256",
          "name": "",
          "type": "uint256"
        }
      ],
      "stateMutability": "view",
      "type": "function"
    },
    {
      "inputs": [
        {
          "internalType": "address",
          "name": "_factoryAddress",
          "type": "address"
        },
        {
          "internalType": "address",
          "name": "_erc721Address",
          "type": "address"
        },
        {
          "components": [
            {
              "internalType": "string",
              "name": "proposalName",
              "type": "string"
            },
            {
              "internalType": "uint256",
              "name": "id",
              "type": "uint256"
            }
          ],
          "internalType": "struct CreateDAO",
          "name": "_config",
          "type": "tuple"
        },
        {
          "internalType": "address",
          "name": "_initialOwner",
          "type": "address"
        }
      ],
      "name": "initialize",
      "outputs": [],
      "stateMutability": "nonpayable",
      "type": "function"
    },
    {
      "inputs": [
        {
          "internalType": "uint256",
          "name": "",
          "type": "uint256"
        }
      ],
      "name": "optionTally",
      "outputs": [
        {
          "internalType": "uint256",
          "name": "",
          "type": "uint256"
        }
      ],
      "stateMutability": "view",
      "type": "function"
    },
    {
      "inputs": [],
      "name": "owner",
      "outputs": [
        {
          "internalType": "address",
          "name": "",
          "type": "address"
        }
      ],
      "stateMutability": "view",
      "type": "function"
    },
    {
      "inputs": [],
      "name": "proposalName",
      "outputs": [
        {
          "internalType": "string",
          "name": "",
          "type": "string"
        }
      ],
      "stateMutability": "view",
      "type": "function"
    },
    {
      "inputs": [],
      "name": "renounceOwnership",
      "outputs": [],
      "stateMutability": "nonpayable",
      "type": "function"
    },
    {
      "inputs": [],
      "name": "totalVotesCast",
      "outputs": [
        {
          "internalType": "uint256",
          "name": "",
          "type": "uint256"
        }
      ],
      "stateMutability": "view",
      "type": "function"
    },
    {
      "inputs": [
        {
          "internalType": "address",
          "name": "newOwner",
          "type": "address"
        }
      ],
      "name": "transferOwnership",
      "outputs": [],
      "stateMutability": "nonpayable",
      "type": "function"
    },
    {
      "inputs": [
        {
          "internalType": "uint256",
          "name": "",
          "type": "uint256"
        }
      ],
      "name": "vote",
      "outputs": [
        {
          "internalType": "uint256",
          "name": "",
          "type": "uint256"
        }
      ],
      "stateMutability": "view",
      "type": "function"
    },
    {
      "inputs": [
        {
          "internalType": "uint256",
          "name": "tokenId",
          "type": "uint256"
        },
        {
          "internalType": "uint256",
          "name": "optionId",
          "type": "uint256"
        }
      ],
      "name": "voteDAO",
      "outputs": [],
      "stateMutability": "nonpayable",
      "type": "function"
    }
  ],
  "transactionHash": "0xc127d88ceb6d155f5a495d6c41af9bd63bbaa469542fd94c36ced0d3a12be042",
  "args": [],
  "numDeployments": 1,
  "solcInputHash": "3d3ce28210a2360bca15dc7ba23ab407",
  "bytecode": "0x608060405234801561001057600080fd5b5061001961001e565b6100d0565b7ff0c57e16840df040f15088dc2f81fe391c3923bec73e23a9662efc9c229c6a00805468010000000000000000900460ff161561006e5760405163f92ee8a960e01b815260040160405180910390fd5b80546001600160401b03908116146100cd5780546001600160401b0319166001600160401b0390811782556040519081527fc7f505b2f371ae2175ee4913f4499e1f2633a7b5936321eed1cdaeb6115181d29060200160405180910390a15b50565b610cc2806100df6000396000f3fe608060405234801561001057600080fd5b50600436106100f55760003560e01c80638da5cb5b11610097578063b40c87c811610066578063b40c87c8146101fa578063eb0772c91461020d578063ecca031f1461022d578063f2fde38b1461025057600080fd5b80638da5cb5b146101c3578063966dae0e146101cb5780639a382e75146101de578063af640d0f146101f157600080fd5b80632352a864116100d35780632352a864146101705780636a2275db1461019b578063715018a6146101b05780637de418d5146101ba57600080fd5b80630121b93f146100fa578063015dcd401461012d57806319eb8d481461014d575b600080fd5b61011a6101083660046108a8565b60056020526000908152604090205481565b6040519081526020015b60405180910390f35b61011a61013b3660046108a8565b60066020526000908152604090205481565b61016061015b3660046108d6565b610263565b6040519015158152602001610124565b600154610183906001600160a01b031681565b6040516001600160a01b039091168152602001610124565b6101a361031b565b6040516101249190610902565b6101b86103a9565b005b61011a60075481565b6101836103bd565b600054610183906001600160a01b031681565b6101b86101ec366004610950565b6103eb565b61011a60035481565b6101b86102083660046109ca565b6105dc565b61011a61021b3660046108a8565b60009081526006602052604090205490565b61016061023b3660046108a8565b60046020526000908152604090205460ff1681565b6101b861025e3660046109ec565b610746565b6001546000906001600160a01b0316158061028c575060008281526004602052604090205460ff165b1561029957506000610315565b6001546040516331a9108f60e11b8152600481018490526001600160a01b03858116921690636352211e90602401602060405180830381865afa1580156102e4573d6000803e3d6000fd5b505050506040513d601f19601f820116820180604052508101906103089190610a10565b6001600160a01b03161490505b92915050565b6002805461032890610a2d565b80601f016020809104026020016040519081016040528092919081815260200182805461035490610a2d565b80156103a15780601f10610376576101008083540402835291602001916103a1565b820191906000526020600020905b81548152906001019060200180831161038457829003601f168201915b505050505081565b6103b1610784565b6103bb60006107b6565b565b7f9016d09d72d40fdae2fd8ceac6b6234c7706214fd39c1cd1e609a0528c199300546001600160a01b031690565b60006103f5610827565b805490915060ff600160401b820416159067ffffffffffffffff1660008115801561041d5750825b905060008267ffffffffffffffff16600114801561043a5750303b155b905081158015610448575080155b156104665760405163f92ee8a960e01b815260040160405180910390fd5b845467ffffffffffffffff19166001178555831561049057845460ff60401b1916600160401b1785555b336001600160a01b038a16146104b957604051630636a15760e11b815260040160405180910390fd5b6001600160a01b0388166104e05760405163d92e233d60e01b815260040160405180910390fd5b6104e986610850565b600080546001600160a01b03808c166001600160a01b03199283161790925560018054928b16929091169190911790556105238780610a67565b600291610531919083610b1a565b506020870135600355307f8a8db3c227be8fb4fa723c4f378e4488952e2943f2212215dbc97362589184f56105646103bd565b60015460405161058392916002916001600160a01b0390911690610bdb565b60405180910390a283156105d157845460ff60401b19168555604051600181527fc7f505b2f371ae2175ee4913f4499e1f2633a7b5936321eed1cdaeb6115181d29060200160405180910390a15b505050505050505050565b6001546001600160a01b031661060557604051630b38582360e01b815260040160405180910390fd5b60008281526004602052604090205460ff161561063d5760405163c0afe58d60e01b8152600481018390526024015b60405180910390fd5b6001546040516331a9108f60e11b81526004810184905233916001600160a01b031690636352211e90602401602060405180830381865afa158015610686573d6000803e3d6000fd5b505050506040513d601f19601f820116820180604052508101906106aa9190610a10565b6001600160a01b0316146106d457604051630e35d34560e11b815260048101839052602401610634565b6000828152600460209081526040808320805460ff1916600190811790915560058352818420859055848452600690925280832080548301905560078054909201909155518291339185917f12602b81b4b3a6bc77534c571e8af3d316246bc5e5bea24efdf512ff6715da1591a45050565b61074e610784565b6001600160a01b03811661077857604051631e4fbdf760e01b815260006004820152602401610634565b610781816107b6565b50565b3361078d6103bd565b6001600160a01b0316146103bb5760405163118cdaa760e01b8152336004820152602401610634565b7f9016d09d72d40fdae2fd8ceac6b6234c7706214fd39c1cd1e609a0528c19930080546001600160a01b031981166001600160a01b03848116918217845560405192169182907f8be0079c531659141344cd1fd0a4f28419497f9722a3daafe3b4186f6b6457e090600090a3505050565b6000807ff0c57e16840df040f15088dc2f81fe391c3923bec73e23a9662efc9c229c6a00610315565b610858610861565b61078181610886565b61086961088e565b6103bb57604051631afcd79f60e31b815260040160405180910390fd5b61074e610861565b6000610898610827565b54600160401b900460ff16919050565b6000602082840312156108ba57600080fd5b5035919050565b6001600160a01b038116811461078157600080fd5b600080604083850312156108e957600080fd5b82356108f4816108c1565b946020939093013593505050565b600060208083528351808285015260005b8181101561092f57858101830151858201604001528201610913565b506000604082860101526040601f19601f8301168501019250505092915050565b6000806000806080858703121561096657600080fd5b8435610971816108c1565b93506020850135610981816108c1565b9250604085013567ffffffffffffffff81111561099d57600080fd5b8501604081880312156109af57600080fd5b915060608501356109bf816108c1565b939692955090935050565b600080604083850312156109dd57600080fd5b50508035926020909101359150565b6000602082840312156109fe57600080fd5b8135610a09816108c1565b9392505050565b600060208284031215610a2257600080fd5b8151610a09816108c1565b600181811c90821680610a4157607f821691505b602082108103610a6157634e487b7160e01b600052602260045260246000fd5b50919050565b6000808335601e19843603018112610a7e57600080fd5b83018035915067ffffffffffffffff821115610a9957600080fd5b602001915036819003821315610aae57600080fd5b9250929050565b634e487b7160e01b600052604160045260246000fd5b601f821115610b1557600081815260208120601f850160051c81016020861015610af25750805b601f850160051c820191505b81811015610b1157828155600101610afe565b5050505b505050565b67ffffffffffffffff831115610b3257610b32610ab5565b610b4683610b408354610a2d565b83610acb565b6000601f841160018114610b7a5760008515610b625750838201355b600019600387901b1c1916600186901b178355610bd4565b600083815260209020601f19861690835b82811015610bab5786850135825560209485019460019092019101610b8b565b5086821015610bc85760001960f88860031b161c19848701351681555b505060018560011b0183555b5050505050565b60018060a01b03841681526000602060608184015260008554610bfd81610a2d565b8060608701526080600180841660008114610c1f5760018114610c3957610c67565b60ff1985168984015283151560051b890183019550610c67565b8a6000528660002060005b85811015610c5f5781548b8201860152908301908801610c44565b8a0184019650505b505050506001600160a01b0386166040860152509150610c849050565b94935050505056fea264697066735822122036f04dd218d44383a4803741fbfad9aa4d1c0797ee02f0c264773c9c77c6c33e64736f6c63430008140033",
  "devdoc": {
    "errors": {
      "InvalidInitialization()": [
        {
          "details": "The contract is already initialized."
        }
      ],
      "NotInitializing()": [
        {
          "details": "The contract is not initializing."
        }
      ],
      "OwnableInvalidOwner(address)": [
        {
          "details": "The owner is not a valid owner account. (eg. `address(0)`)"
        }
      ],
      "OwnableUnauthorizedAccount(address)": [
        {
          "details": "The caller account is not authorized to perform an operation."
        }
      ]
    },
    "events": {
      "Initialized(uint64)": {
        "details": "Triggered when the contract has been initialized or reinitialized."
      }
    },
    "kind": "dev",
    "methods": {
      "initialize(address,address,(string,uint256),address)": {
        "params": {
          "_config": "DAO config (expects proposalName, id).",
          "_erc721Address": "ERC721 collection granting voting rights.",
          "_factoryAddress": "ProposalFactory address (must be msg.sender).",
          "_initialOwner": "Admin/owner for this clone."
        }
      },
      "owner()": {
        "details": "Returns the address of the current owner."
      },
      "renounceOwnership()": {
        "details": "Leaves the contract without owner. It will not be possible to call `onlyOwner` functions. Can only be called by the current owner. NOTE: Renouncing ownership will leave the contract without an owner, thereby disabling any functionality that is only available to the owner."
      },
      "transferOwnership(address)": {
        "details": "Transfers ownership of the contract to a new account (`newOwner`). Can only be called by the current owner."
      },
      "voteDAO(uint256,uint256)": {
        "details": "Caller must own `tokenId` at call time. Each tokenId votes once."
      }
    },
    "title": "DAOImplementation",
    "version": 1
  },
  "userdoc": {
    "kind": "user",
    "methods": {
      "hasVoted(uint256)": {
        "notice": "tokenId => has voted"
      },
      "optionTally(uint256)": {
        "notice": "optionId => votes"
      },
      "totalVotesCast()": {
        "notice": "Total votes cast (sum of all option tallies)"
      },
      "vote(uint256)": {
        "notice": "tokenId => optionId chosen"
      },
      "voteDAO(uint256,uint256)": {
        "notice": "Cast one vote using a specific tokenId."
      }
    },
    "notice": "ERC721 token-gated voting (1 NFT = 1 vote per tokenId). - Optional option validation (owner seeds valid options, then locks them). - Tallies per option. - Bulk voting, pause/unpause, gas-friendly errors.",
    "version": 1
  },
  "storageLayout": {
    "storage": [
      {
        "astId": 8330,
        "contract": "contracts/DAOImplementation.sol:DAOImplementation",
        "label": "factoryAddress",
        "offset": 0,
        "slot": "0",
        "type": "t_address"
      },
      {
        "astId": 8332,
        "contract": "contracts/DAOImplementation.sol:DAOImplementation",
        "label": "erc721Address",
        "offset": 0,
        "slot": "1",
        "type": "t_address"
      },
      {
        "astId": 8334,
        "contract": "contracts/DAOImplementation.sol:DAOImplementation",
        "label": "proposalName",
        "offset": 0,
        "slot": "2",
        "type": "t_string_storage"
      },
      {
        "astId": 8336,
        "contract": "contracts/DAOImplementation.sol:DAOImplementation",
        "label": "id",
        "offset": 0,
        "slot": "3",
        "type": "t_uint256"
      },
      {
        "astId": 8341,
        "contract": "contracts/DAOImplementation.sol:DAOImplementation",
        "label": "hasVoted",
        "offset": 0,
        "slot": "4",
        "type": "t_mapping(t_uint256,t_bool)"
      },
      {
        "astId": 8346,
        "contract": "contracts/DAOImplementation.sol:DAOImplementation",
        "label": "vote",
        "offset": 0,
        "slot": "5",
        "type": "t_mapping(t_uint256,t_uint256)"
      },
      {
        "astId": 8351,
        "contract": "contracts/DAOImplementation.sol:DAOImplementation",
        "label": "optionTally",
        "offset": 0,
        "slot": "6",
        "type": "t_mapping(t_uint256,t_uint256)"
      },
      {
        "astId": 8354,
        "contract": "contracts/DAOImplementation.sol:DAOImplementation",
        "label": "totalVotesCast",
        "offset": 0,
        "slot": "7",
        "type": "t_uint256"
      },
      {
        "astId": 8565,
        "contract": "contracts/DAOImplementation.sol:DAOImplementation",
        "label": "__gap",
        "offset": 0,
        "slot": "8",
        "type": "t_array(t_uint256)40_storage"
      }
    ],
    "types": {
      "t_address": {
        "encoding": "inplace",
        "label": "address",
        "numberOfBytes": "20"
      },
      "t_array(t_uint256)40_storage": {
        "base": "t_uint256",
        "encoding": "inplace",
        "label": "uint256[40]",
        "numberOfBytes": "1280"
      },
      "t_bool": {
        "encoding": "inplace",
        "label": "bool",
        "numberOfBytes": "1"
      },
      "t_mapping(t_uint256,t_bool)": {
        "encoding": "mapping",
        "key": "t_uint256",
        "label": "mapping(uint256 => bool)",
        "numberOfBytes": "32",
        "value": "t_bool"
      },
      "t_mapping(t_uint256,t_uint256)": {
        "encoding": "mapping",
        "key": "t_uint256",
        "label": "mapping(uint256 => uint256)",
        "numberOfBytes": "32",
        "value": "t_uint256"
      },
      "t_string_storage": {
        "encoding": "bytes",
        "label": "string",
        "numberOfBytes": "32"
      },
      "t_uint256": {
        "encoding": "inplace",
        "label": "uint256",
        "numberOfBytes": "32"
      }
    }
  }
}