{
  "address": "0xeE6C17E7De0ce20D5f00A82Ef410CfCc0E279157",
  "abi": [
    {
      "inputs": [],
      "stateMutability": "nonpayable",
      "type": "constructor"
    },
    {
      "inputs": [],
      "name": "CapExceeded",
      "type": "error"
    },
    {
      "inputs": [],
      "name": "InvalidAmount",
      "type": "error"
    },
    {
      "inputs": [],
      "name": "InvalidInitialization",
      "type": "error"
    },
    {
      "inputs": [],
      "name": "NotInitializing",
      "type": "error"
    },
    {
      "inputs": [],
      "name": "OnlyFactory",
      "type": "error"
    },
    {
      "inputs": [
        {
          "internalType": "address",
          "name": "owner",
          "type": "address"
        }
      ],
      "name": "OwnableInvalidOwner",
      "type": "error"
    },
    {
      "inputs": [
        {
          "internalType": "address",
          "name": "account",
          "type": "address"
        }
      ],
      "name": "OwnableUnauthorizedAccount",
      "type": "error"
    },
    {
      "anonymous": false,
      "inputs": [
        {
          "indexed": true,
          "internalType": "address",
          "name": "voter",
          "type": "address"
        },
        {
          "indexed": false,
          "internalType": "uint256",
          "name": "amount",
          "type": "uint256"
        }
      ],
      "name": "FundsAllocated",
      "type": "event"
    },
    {
      "anonymous": false,
      "inputs": [
        {
          "indexed": true,
          "internalType": "address",
          "name": "proposalAddress",
          "type": "address"
        },
        {
          "indexed": false,
          "internalType": "address",
          "name": "owner",
          "type": "address"
        },
        {
          "indexed": false,
          "internalType": "string",
          "name": "proposalName",
          "type": "string"
        },
        {
          "indexed": false,
          "internalType": "uint256",
          "name": "proposedFund",
          "type": "uint256"
        }
      ],
      "name": "InitializeProposal",
      "type": "event"
    },
    {
      "anonymous": false,
      "inputs": [
        {
          "indexed": false,
          "internalType": "uint64",
          "name": "version",
          "type": "uint64"
        }
      ],
      "name": "Initialized",
      "type": "event"
    },
    {
      "anonymous": false,
      "inputs": [
        {
          "indexed": true,
          "internalType": "address",
          "name": "previousOwner",
          "type": "address"
        },
        {
          "indexed": true,
          "internalType": "address",
          "name": "newOwner",
          "type": "address"
        }
      ],
      "name": "OwnershipTransferred",
      "type": "event"
    },
    {
      "anonymous": false,
      "inputs": [
        {
          "indexed": true,
          "internalType": "address",
          "name": "voter",
          "type": "address"
        },
        {
          "indexed": true,
          "internalType": "address",
          "name": "proposalAddress",
          "type": "address"
        },
        {
          "indexed": false,
          "internalType": "uint256",
          "name": "amount",
          "type": "uint256"
        }
      ],
      "name": "ProposalVoted",
      "type": "event"
    },
    {
      "inputs": [
        {
          "internalType": "address",
          "name": "",
          "type": "address"
        }
      ],
      "name": "allocatedFund",
      "outputs": [
        {
          "internalType": "uint256",
          "name": "",
          "type": "uint256"
        }
      ],
      "stateMutability": "view",
      "type": "function"
    },
    {
      "inputs": [
        {
          "internalType": "address",
          "name": "",
          "type": "address"
        }
      ],
      "name": "availableToAllocate",
      "outputs": [
        {
          "internalType": "uint256",
          "name": "",
          "type": "uint256"
        }
      ],
      "stateMutability": "view",
      "type": "function"
    },
    {
      "inputs": [
        {
          "internalType": "uint256",
          "name": "amount",
          "type": "uint256"
        }
      ],
      "name": "canAllocate",
      "outputs": [
        {
          "internalType": "bool",
          "name": "",
          "type": "bool"
        }
      ],
      "stateMutability": "view",
      "type": "function"
    },
    {
      "inputs": [],
      "name": "erc721Address",
      "outputs": [
        {
          "internalType": "address",
          "name": "",
          "type": "address"
        }
      ],
      "stateMutability": "view",
      "type": "function"
    },
    {
      "inputs": [],
      "name": "factoryAddress",
      "outputs": [
        {
          "internalType": "address",
          "name": "",
          "type": "address"
        }
      ],
      "stateMutability": "view",
      "type": "function"
    },
    {
      "inputs": [
        {
          "internalType": "uint256",
          "name": "amount",
          "type": "uint256"
        }
      ],
      "name": "fund",
      "outputs": [],
      "stateMutability": "nonpayable",
      "type": "function"
    },
    {
      "inputs": [],
      "name": "id",
      "outputs": [
        {
          "internalType": "uint256",
          "name": "",
          "type": "uint256"
        }
      ],
      "stateMutability": "view",
      "type": "function"
    },
    {
      "inputs": [
        {
          "internalType": "address",
          "name": "_factoryAddress",
          "type": "address"
        },
        {
          "internalType": "address",
          "name": "_erc721Address",
          "type": "address"
        },
        {
          "components": [
            {
              "internalType": "string",
              "name": "proposalName",
              "type": "string"
            },
            {
              "internalType": "uint256",
              "name": "id",
              "type": "uint256"
            },
            {
              "internalType": "uint256",
              "name": "proposedFund",
              "type": "uint256"
            }
          ],
          "internalType": "struct CreateProposal",
          "name": "_config",
          "type": "tuple"
        },
        {
          "internalType": "address",
          "name": "_initialOwner",
          "type": "address"
        }
      ],
      "name": "initialize",
      "outputs": [],
      "stateMutability": "nonpayable",
      "type": "function"
    },
    {
      "inputs": [],
      "name": "isFull",
      "outputs": [
        {
          "internalType": "bool",
          "name": "",
          "type": "bool"
        }
      ],
      "stateMutability": "view",
      "type": "function"
    },
    {
      "inputs": [],
      "name": "owner",
      "outputs": [
        {
          "internalType": "address",
          "name": "",
          "type": "address"
        }
      ],
      "stateMutability": "view",
      "type": "function"
    },
    {
      "inputs": [],
      "name": "proposalName",
      "outputs": [
        {
          "internalType": "string",
          "name": "",
          "type": "string"
        }
      ],
      "stateMutability": "view",
      "type": "function"
    },
    {
      "inputs": [],
      "name": "proposedFund",
      "outputs": [
        {
          "internalType": "uint256",
          "name": "",
          "type": "uint256"
        }
      ],
      "stateMutability": "view",
      "type": "function"
    },
    {
      "inputs": [],
      "name": "remainingFund",
      "outputs": [
        {
          "internalType": "uint256",
          "name": "",
          "type": "uint256"
        }
      ],
      "stateMutability": "view",
      "type": "function"
    },
    {
      "inputs": [],
      "name": "renounceOwnership",
      "outputs": [],
      "stateMutability": "nonpayable",
      "type": "function"
    },
    {
      "inputs": [],
      "name": "totalAllocated",
      "outputs": [
        {
          "internalType": "uint256",
          "name": "",
          "type": "uint256"
        }
      ],
      "stateMutability": "view",
      "type": "function"
    },
    {
      "inputs": [
        {
          "internalType": "address",
          "name": "newOwner",
          "type": "address"
        }
      ],
      "name": "transferOwnership",
      "outputs": [],
      "stateMutability": "nonpayable",
      "type": "function"
    }
  ],
  "transactionHash": "0x7adef4f1762a704ca3ee09202bcf711775206e64f5644cb9d9119b935b2bd625",
  "args": [],
  "numDeployments": 1,
  "solcInputHash": "3d3ce28210a2360bca15dc7ba23ab407",
  "bytecode": "0x608060405234801561001057600080fd5b5061001961001e565b6100d0565b7ff0c57e16840df040f15088dc2f81fe391c3923bec73e23a9662efc9c229c6a00805468010000000000000000900460ff161561006e5760405163f92ee8a960e01b815260040160405180910390fd5b80546001600160401b03908116146100cd5780546001600160401b0319166001600160401b0390811782556040519081527fc7f505b2f371ae2175ee4913f4499e1f2633a7b5936321eed1cdaeb6115181d29060200160405180910390a15b50565b610b66806100df6000396000f3fe608060405234801561001057600080fd5b50600436106101005760003560e01c806373498efd11610097578063af640d0f11610066578063af640d0f14610200578063babd3d9a14610209578063ca1d209d14610216578063f2fde38b1461022957600080fd5b806373498efd146101bc5780638b466b77146101dc5780638da5cb5b146101e5578063966dae0e146101ed57600080fd5b80635254a9ba116100d35780635254a9ba146101675780636a2275db1461018a578063715018a61461019f578063722cfea0146101a957600080fd5b80632352a864146101055780633994a2681461013557806345f7f2491461014b57806349d249fc14610154575b600080fd5b600154610118906001600160a01b031681565b6040516001600160a01b0390911681526020015b60405180910390f35b61013d61023c565b60405190815260200161012c565b61013d60055481565b61013d6101623660046107a6565b610269565b61017a6101753660046107c8565b610279565b604051901515815260200161012c565b61019261029e565b60405161012c91906107e1565b6101a761032c565b005b6101a76101b736600461082f565b610340565b61013d6101ca3660046107a6565b60066020526000908152604090205481565b61013d60045481565b610118610506565b600054610118906001600160a01b031681565b61013d60035481565b600454600554101561017a565b6101a76102243660046107c8565b610534565b6101a76102373660046107a6565b610623565b60055460045460009190811015610260578060045461025b91906108b9565b610263565b60005b91505090565b600061027361023c565b92915050565b6000808211801561027357506004548260055461029691906108cc565b111592915050565b600280546102ab906108df565b80601f01602080910402602001604051908101604052809291908181526020018280546102d7906108df565b80156103245780601f106102f957610100808354040283529160200191610324565b820191906000526020600020905b81548152906001019060200180831161030757829003601f168201915b505050505081565b610334610666565b61033e6000610698565b565b600061034a610709565b805490915060ff600160401b820416159067ffffffffffffffff166000811580156103725750825b905060008267ffffffffffffffff16600114801561038f5750303b155b90508115801561039d575080155b156103bb5760405163f92ee8a960e01b815260040160405180910390fd5b845467ffffffffffffffff1916600117855583156103e557845460ff60401b1916600160401b1785555b336001600160a01b038a161461040e57604051630636a15760e11b815260040160405180910390fd5b61041786610732565b600080546001600160a01b03808c166001600160a01b03199283161790925560018054928b16929091169190911790556104518780610919565b60029161045f9190836109cc565b5060208701356003556040870135600455307f45b8dd5cf908585ae168a68c01ba622b42fa0c9abdeb126dde3a98e80b94dd7d61049a610506565b6004546040516104ad9291600291610a8d565b60405180910390a283156104fb57845460ff60401b19168555604051600181527fc7f505b2f371ae2175ee4913f4499e1f2633a7b5936321eed1cdaeb6115181d29060200160405180910390a15b505050505050505050565b7f9016d09d72d40fdae2fd8ceac6b6234c7706214fd39c1cd1e609a0528c199300546001600160a01b031690565b806000036105555760405163162908e360e11b815260040160405180910390fd5b60008160055461056591906108cc565b905060045481111561058a5760405163a4875a4960e01b815260040160405180910390fd5b33600090815260066020526040812080548492906105a99084906108cc565b90915550506005819055604051828152309033907fafb5d9f9c89c99dc7dcb68f4d3ce0b2ad9ca1ab4b7d0038bebd04c11ae0a3c239060200160405180910390a360405182815233907f870f86672db2c7b197484fa0218e97fe38eb7c89fd39ed2c4c910734c66182f89060200160405180910390a25050565b61062b610666565b6001600160a01b03811661065a57604051631e4fbdf760e01b8152600060048201526024015b60405180910390fd5b61066381610698565b50565b3361066f610506565b6001600160a01b03161461033e5760405163118cdaa760e01b8152336004820152602401610651565b7f9016d09d72d40fdae2fd8ceac6b6234c7706214fd39c1cd1e609a0528c19930080546001600160a01b031981166001600160a01b03848116918217845560405192169182907f8be0079c531659141344cd1fd0a4f28419497f9722a3daafe3b4186f6b6457e090600090a3505050565b6000807ff0c57e16840df040f15088dc2f81fe391c3923bec73e23a9662efc9c229c6a00610273565b61073a610743565b61066381610768565b61074b610770565b61033e57604051631afcd79f60e31b815260040160405180910390fd5b61062b610743565b600061077a610709565b54600160401b900460ff16919050565b80356001600160a01b03811681146107a157600080fd5b919050565b6000602082840312156107b857600080fd5b6107c18261078a565b9392505050565b6000602082840312156107da57600080fd5b5035919050565b600060208083528351808285015260005b8181101561080e578581018301518582016040015282016107f2565b506000604082860101526040601f19601f8301168501019250505092915050565b6000806000806080858703121561084557600080fd5b61084e8561078a565b935061085c6020860161078a565b9250604085013567ffffffffffffffff81111561087857600080fd5b85016060818803121561088a57600080fd5b91506108986060860161078a565b905092959194509250565b634e487b7160e01b600052601160045260246000fd5b81810381811115610273576102736108a3565b80820180821115610273576102736108a3565b600181811c908216806108f357607f821691505b60208210810361091357634e487b7160e01b600052602260045260246000fd5b50919050565b6000808335601e1984360301811261093057600080fd5b83018035915067ffffffffffffffff82111561094b57600080fd5b60200191503681900382131561096057600080fd5b9250929050565b634e487b7160e01b600052604160045260246000fd5b601f8211156109c757600081815260208120601f850160051c810160208610156109a45750805b601f850160051c820191505b818110156109c3578281556001016109b0565b5050505b505050565b67ffffffffffffffff8311156109e4576109e4610967565b6109f8836109f283546108df565b8361097d565b6000601f841160018114610a2c5760008515610a145750838201355b600019600387901b1c1916600186901b178355610a86565b600083815260209020601f19861690835b82811015610a5d5786850135825560209485019460019092019101610a3d565b5086821015610a7a5760001960f88860031b161c19848701351681555b505060018560011b0183555b5050505050565b60018060a01b03841681526000602060608184015260008554610aaf816108df565b8060608701526080600180841660008114610ad15760018114610aeb57610b19565b60ff1985168984015283151560051b890183019550610b19565b8a6000528660002060005b85811015610b115781548b8201860152908301908801610af6565b8a0184019650505b50505050506040939093019390935250939250505056fea264697066735822122048695604ee603184ad236e8120a88a7aa3a55f61fc0c0a8623baded457e4e7ad64736f6c63430008140033",
  "devdoc": {
    "errors": {
      "InvalidInitialization()": [
        {
          "details": "The contract is already initialized."
        }
      ],
      "NotInitializing()": [
        {
          "details": "The contract is not initializing."
        }
      ],
      "OwnableInvalidOwner(address)": [
        {
          "details": "The owner is not a valid owner account. (eg. `address(0)`)"
        }
      ],
      "OwnableUnauthorizedAccount(address)": [
        {
          "details": "The caller account is not authorized to perform an operation."
        }
      ]
    },
    "events": {
      "Initialized(uint64)": {
        "details": "Triggered when the contract has been initialized or reinitialized."
      }
    },
    "kind": "dev",
    "methods": {
      "availableToAllocate(address)": {
        "details": "Kept in case you later add per-user limits/logic."
      },
      "constructor": {
        "details": "Lock the logic/implementation contract."
      },
      "fund(uint256)": {
        "details": "Enforces that totalAllocated never exceeds proposedFund."
      },
      "initialize(address,address,(string,uint256,uint256),address)": {
        "params": {
          "_config": "Proposal config (expects proposalName, id, proposedFund).",
          "_erc721Address": "Optional reference (kept for symmetry/extensibility).",
          "_factoryAddress": "The address of ProposalFactory.",
          "_initialOwner": "The EOA that will own/admin this clone."
        }
      },
      "owner()": {
        "details": "Returns the address of the current owner."
      },
      "renounceOwnership()": {
        "details": "Leaves the contract without owner. It will not be possible to call `onlyOwner` functions. Can only be called by the current owner. NOTE: Renouncing ownership will leave the contract without an owner, thereby disabling any functionality that is only available to the owner."
      },
      "transferOwnership(address)": {
        "details": "Transfers ownership of the contract to a new account (`newOwner`). Can only be called by the current owner."
      }
    },
    "title": "BusinessProposalImplementation",
    "version": 1
  },
  "userdoc": {
    "kind": "user",
    "methods": {
      "allocatedFund(address)": {
        "notice": "Mapping [participantAddress] => allocated amount"
      },
      "availableToAllocate(address)": {
        "notice": "Headroom for a specific user (currently same as global remaining)."
      },
      "canAllocate(uint256)": {
        "notice": "Whether a given amount could be allocated right now."
      },
      "fund(uint256)": {
        "notice": "Allocate funds towards this proposal (tracked in contract state)."
      },
      "initialize(address,address,(string,uint256,uint256),address)": {
        "notice": "Initializes the contract with the given parameters."
      },
      "isFull()": {
        "notice": "Whether the cap has been fully reached."
      },
      "remainingFund()": {
        "notice": "Remaining capacity before reaching the cap."
      }
    },
    "notice": "Implementation for Business Proposal with a hard fundraising cap.",
    "version": 1
  },
  "storageLayout": {
    "storage": [
      {
        "astId": 8066,
        "contract": "contracts/BusinessProposalImplementation.sol:BusinessProposalImplementation",
        "label": "factoryAddress",
        "offset": 0,
        "slot": "0",
        "type": "t_address"
      },
      {
        "astId": 8068,
        "contract": "contracts/BusinessProposalImplementation.sol:BusinessProposalImplementation",
        "label": "erc721Address",
        "offset": 0,
        "slot": "1",
        "type": "t_address"
      },
      {
        "astId": 8070,
        "contract": "contracts/BusinessProposalImplementation.sol:BusinessProposalImplementation",
        "label": "proposalName",
        "offset": 0,
        "slot": "2",
        "type": "t_string_storage"
      },
      {
        "astId": 8072,
        "contract": "contracts/BusinessProposalImplementation.sol:BusinessProposalImplementation",
        "label": "id",
        "offset": 0,
        "slot": "3",
        "type": "t_uint256"
      },
      {
        "astId": 8074,
        "contract": "contracts/BusinessProposalImplementation.sol:BusinessProposalImplementation",
        "label": "proposedFund",
        "offset": 0,
        "slot": "4",
        "type": "t_uint256"
      },
      {
        "astId": 8076,
        "contract": "contracts/BusinessProposalImplementation.sol:BusinessProposalImplementation",
        "label": "totalAllocated",
        "offset": 0,
        "slot": "5",
        "type": "t_uint256"
      },
      {
        "astId": 8081,
        "contract": "contracts/BusinessProposalImplementation.sol:BusinessProposalImplementation",
        "label": "allocatedFund",
        "offset": 0,
        "slot": "6",
        "type": "t_mapping(t_address,t_uint256)"
      }
    ],
    "types": {
      "t_address": {
        "encoding": "inplace",
        "label": "address",
        "numberOfBytes": "20"
      },
      "t_mapping(t_address,t_uint256)": {
        "encoding": "mapping",
        "key": "t_address",
        "label": "mapping(address => uint256)",
        "numberOfBytes": "32",
        "value": "t_uint256"
      },
      "t_string_storage": {
        "encoding": "bytes",
        "label": "string",
        "numberOfBytes": "32"
      },
      "t_uint256": {
        "encoding": "inplace",
        "label": "uint256",
        "numberOfBytes": "32"
      }
    }
  }
}