{
  "address": "0xfC39FAA81ac5fF97ECE4a302a15F6DBAFb403cDd",
  "abi": [
    {
      "inputs": [
        {
          "internalType": "address",
          "name": "_daoImpl",
          "type": "address"
        },
        {
          "internalType": "address",
          "name": "_bpImpl",
          "type": "address"
        },
        {
          "internalType": "address",
          "name": "_erc721Address",
          "type": "address"
        }
      ],
      "stateMutability": "nonpayable",
      "type": "constructor"
    },
    {
      "inputs": [],
      "name": "FailedDeployment",
      "type": "error"
    },
    {
      "inputs": [
        {
          "internalType": "uint256",
          "name": "balance",
          "type": "uint256"
        },
        {
          "internalType": "uint256",
          "name": "needed",
          "type": "uint256"
        }
      ],
      "name": "InsufficientBalance",
      "type": "error"
    },
    {
      "inputs": [
        {
          "internalType": "address",
          "name": "owner",
          "type": "address"
        }
      ],
      "name": "OwnableInvalidOwner",
      "type": "error"
    },
    {
      "inputs": [
        {
          "internalType": "address",
          "name": "account",
          "type": "address"
        }
      ],
      "name": "OwnableUnauthorizedAccount",
      "type": "error"
    },
    {
      "anonymous": false,
      "inputs": [
        {
          "indexed": true,
          "internalType": "address",
          "name": "previousOwner",
          "type": "address"
        },
        {
          "indexed": true,
          "internalType": "address",
          "name": "newOwner",
          "type": "address"
        }
      ],
      "name": "OwnershipTransferred",
      "type": "event"
    },
    {
      "anonymous": false,
      "inputs": [
        {
          "indexed": true,
          "internalType": "address",
          "name": "creator",
          "type": "address"
        },
        {
          "indexed": true,
          "internalType": "address",
          "name": "proposalAddress",
          "type": "address"
        },
        {
          "indexed": false,
          "internalType": "enum ProposalType",
          "name": "proposalType",
          "type": "uint8"
        },
        {
          "indexed": false,
          "internalType": "uint256",
          "name": "id",
          "type": "uint256"
        }
      ],
      "name": "ProposalCreated",
      "type": "event"
    },
    {
      "inputs": [],
      "name": "bpImplementation",
      "outputs": [
        {
          "internalType": "address",
          "name": "",
          "type": "address"
        }
      ],
      "stateMutability": "view",
      "type": "function"
    },
    {
      "inputs": [
        {
          "components": [
            {
              "internalType": "string",
              "name": "proposalName",
              "type": "string"
            },
            {
              "internalType": "uint256",
              "name": "id",
              "type": "uint256"
            },
            {
              "internalType": "uint256",
              "name": "proposedFund",
              "type": "uint256"
            }
          ],
          "internalType": "struct CreateProposal",
          "name": "_config",
          "type": "tuple"
        }
      ],
      "name": "createBusinessProposal",
      "outputs": [
        {
          "internalType": "address",
          "name": "proposalAddress",
          "type": "address"
        }
      ],
      "stateMutability": "nonpayable",
      "type": "function"
    },
    {
      "inputs": [
        {
          "components": [
            {
              "internalType": "string",
              "name": "proposalName",
              "type": "string"
            },
            {
              "internalType": "uint256",
              "name": "id",
              "type": "uint256"
            }
          ],
          "internalType": "struct CreateDAO",
          "name": "_config",
          "type": "tuple"
        }
      ],
      "name": "createDAOProposal",
      "outputs": [
        {
          "internalType": "address",
          "name": "proposalAddress",
          "type": "address"
        }
      ],
      "stateMutability": "nonpayable",
      "type": "function"
    },
    {
      "inputs": [],
      "name": "daoImplementation",
      "outputs": [
        {
          "internalType": "address",
          "name": "",
          "type": "address"
        }
      ],
      "stateMutability": "view",
      "type": "function"
    },
    {
      "inputs": [],
      "name": "erc721Address",
      "outputs": [
        {
          "internalType": "address",
          "name": "",
          "type": "address"
        }
      ],
      "stateMutability": "view",
      "type": "function"
    },
    {
      "inputs": [],
      "name": "getAllProposals",
      "outputs": [
        {
          "components": [
            {
              "internalType": "uint256",
              "name": "id",
              "type": "uint256"
            },
            {
              "internalType": "enum ProposalType",
              "name": "proposalType",
              "type": "uint8"
            },
            {
              "internalType": "address",
              "name": "proposalAddress",
              "type": "address"
            },
            {
              "internalType": "address",
              "name": "creator",
              "type": "address"
            }
          ],
          "internalType": "struct ProposalInfo[]",
          "name": "",
          "type": "tuple[]"
        }
      ],
      "stateMutability": "view",
      "type": "function"
    },
    {
      "inputs": [
        {
          "internalType": "uint256",
          "name": "id",
          "type": "uint256"
        }
      ],
      "name": "getProposal",
      "outputs": [
        {
          "components": [
            {
              "internalType": "uint256",
              "name": "id",
              "type": "uint256"
            },
            {
              "internalType": "enum ProposalType",
              "name": "proposalType",
              "type": "uint8"
            },
            {
              "internalType": "address",
              "name": "proposalAddress",
              "type": "address"
            },
            {
              "internalType": "address",
              "name": "creator",
              "type": "address"
            }
          ],
          "internalType": "struct ProposalInfo",
          "name": "",
          "type": "tuple"
        }
      ],
      "stateMutability": "view",
      "type": "function"
    },
    {
      "inputs": [],
      "name": "owner",
      "outputs": [
        {
          "internalType": "address",
          "name": "",
          "type": "address"
        }
      ],
      "stateMutability": "view",
      "type": "function"
    },
    {
      "inputs": [],
      "name": "renounceOwnership",
      "outputs": [],
      "stateMutability": "nonpayable",
      "type": "function"
    },
    {
      "inputs": [],
      "name": "totalProposals",
      "outputs": [
        {
          "internalType": "uint256",
          "name": "",
          "type": "uint256"
        }
      ],
      "stateMutability": "view",
      "type": "function"
    },
    {
      "inputs": [
        {
          "internalType": "address",
          "name": "newOwner",
          "type": "address"
        }
      ],
      "name": "transferOwnership",
      "outputs": [],
      "stateMutability": "nonpayable",
      "type": "function"
    }
  ],
  "transactionHash": "0x1b813ad9e0246b7fa0521428ba08ceb0d0c8b53b48ce1942a16d9f9cffa8c569",
  "args": [
    "0xc61D7ce5064484838D2306979708A025170dCDBA",
    "0xeE6C17E7De0ce20D5f00A82Ef410CfCc0E279157",
    "0x6D5ECFcF2811124056adA660A53EFa05A57B3edc"
  ],
  "numDeployments": 2,
  "solcInputHash": "3d3ce28210a2360bca15dc7ba23ab407",
  "bytecode": "0x608060405234801561001057600080fd5b50604051610cfd380380610cfd83398101604081905261002f9161010d565b338061005557604051631e4fbdf760e01b81526000600482015260240160405180910390fd5b61005e816100a1565b50600180546001600160a01b039485166001600160a01b031991821617909155600280549385169382169390931790925560038054919093169116179055610150565b600080546001600160a01b038381166001600160a01b0319831681178455604051919092169283917f8be0079c531659141344cd1fd0a4f28419497f9722a3daafe3b4186f6b6457e09190a35050565b80516001600160a01b038116811461010857600080fd5b919050565b60008060006060848603121561012257600080fd5b61012b846100f1565b9250610139602085016100f1565b9150610147604085016100f1565b90509250925092565b610b9e8061015f6000396000f3fe608060405234801561001057600080fd5b50600436106100a95760003560e01c80639d699326116100715780639d6993261461011f578063a2b52bab14610132578063a78d80fc14610145578063c7f758a814610156578063cceb68f514610176578063f2fde38b1461018b57600080fd5b80632352a864146100ae57806360a11792146100de578063715018a6146100f15780638a4e965c146100fb5780638da5cb5b1461010e575b600080fd5b6003546100c1906001600160a01b031681565b6040516001600160a01b0390911681526020015b60405180910390f35b6100c16100ec36600461084f565b61019e565b6100f9610352565b005b6002546100c1906001600160a01b031681565b6000546001600160a01b03166100c1565b6001546100c1906001600160a01b031681565b6100c1610140366004610891565b610366565b6004546040519081526020016100d5565b6101696101643660046108cc565b610509565b6040516100d59190610958565b61017e61061f565b6040516100d59190610966565b6100f96101993660046109b4565b6106eb565b6001546000906101b6906001600160a01b0316610729565b600354604051639a382e7560e01b81529192506001600160a01b0380841692639a382e75926101f092309291169087903390600401610a53565b600060405180830381600087803b15801561020a57600080fd5b505af115801561021e573d6000803e3d6000fd5b50506004546000925061023391506001610ab0565b9050600460405180608001604052808381526020016000600181111561025b5761025b6108e5565b81526001600160a01b038516602080830191909152336040909201919091528254600181810185556000948552938290208351600390920201908155908201518184018054939492939192909160ff19169083818111156102be576102be6108e5565b0217905550604082810151600183018054610100600160a81b0319166101006001600160a01b0393841602179055606090930151600290920180546001600160a01b03191692841692909217909155519083169033907fa12e24bb0834f6e4675e73527f5274f0340361aaddca444046f807674a18768190610344906000908690610ad1565b60405180910390a350919050565b61035a61073c565b6103646000610769565b565b60025460009061037e906001600160a01b0316610729565b60035460405163039167f560e51b81529192506001600160a01b038084169263722cfea0926103b892309291169087903390600401610aec565b600060405180830381600087803b1580156103d257600080fd5b505af11580156103e6573d6000803e3d6000fd5b5050600454600092506103fb91506001610ab0565b905060046040518060800160405280838152602001600180811115610422576104226108e5565b81526001600160a01b038516602080830191909152336040909201919091528254600181810185556000948552938290208351600390920201908155908201518184018054939492939192909160ff1916908381811115610485576104856108e5565b021790555060408281015160018381018054610100600160a81b0319166101006001600160a01b0394851602179055606090940151600290930180546001600160a01b03191693821693909317909255519084169133917fa12e24bb0834f6e4675e73527f5274f0340361aaddca444046f807674a18768191610344918690610ad1565b60408051608081018252600080825260208201819052918101829052606081019190915260045482106105835760405162461bcd60e51b815260206004820152601760248201527f50726f706f73616c20646f6573206e6f7420657869737400000000000000000060448201526064015b60405180910390fd5b6004828154811061059657610596610b52565b9060005260206000209060030201604051806080016040529081600082015481526020016001820160009054906101000a900460ff1660018111156105dd576105dd6108e5565b60018111156105ee576105ee6108e5565b815260018201546001600160a01b036101009091048116602083015260029092015490911660409091015292915050565b60606004805480602002602001604051908101604052809291908181526020016000905b828210156106e25783829060005260206000209060030201604051806080016040529081600082015481526020016001820160009054906101000a900460ff166001811115610694576106946108e5565b60018111156106a5576106a56108e5565b81526001828101546001600160a01b0361010090910481166020808501919091526002909401541660409092019190915291835292019101610643565b50505050905090565b6106f361073c565b6001600160a01b03811661071d57604051631e4fbdf760e01b81526000600482015260240161057a565b61072681610769565b50565b60006107368260006107b9565b92915050565b6000546001600160a01b031633146103645760405163118cdaa760e01b815233600482015260240161057a565b600080546001600160a01b038381166001600160a01b0319831681178455604051919092169283917f8be0079c531659141344cd1fd0a4f28419497f9722a3daafe3b4186f6b6457e09190a35050565b6000814710156107e55760405163cf47918160e01b81524760048201526024810183905260440161057a565b763d602d80600a3d3981f3363d3d373d3d3d363d730000008360601b60e81c176000526e5af43d82803e903d91602b57fd5bf38360781b176020526037600983f090506001600160a01b0381166107365760405163b06ebf3d60e01b815260040160405180910390fd5b60006020828403121561086157600080fd5b813567ffffffffffffffff81111561087857600080fd5b82016040818503121561088a57600080fd5b9392505050565b6000602082840312156108a357600080fd5b813567ffffffffffffffff8111156108ba57600080fd5b82016060818503121561088a57600080fd5b6000602082840312156108de57600080fd5b5035919050565b634e487b7160e01b600052602160045260246000fd5b6002811061091957634e487b7160e01b600052602160045260246000fd5b9052565b80518252602081015161093360208401826108fb565b506040818101516001600160a01b039081169184019190915260609182015116910152565b60808101610736828461091d565b6020808252825182820181905260009190848201906040850190845b818110156109a85761099583855161091d565b9284019260809290920191600101610982565b50909695505050505050565b6000602082840312156109c657600080fd5b81356001600160a01b038116811461088a57600080fd5b6000808335601e198436030181126109f457600080fd5b830160208101925035905067ffffffffffffffff811115610a1457600080fd5b803603821315610a2357600080fd5b9250929050565b81835281816020850137506000828201602090810191909152601f909101601f19169091010190565b6001600160a01b038581168252848116602083015260806040830152600090610a7c85806109dd565b60406080860152610a9160c086018284610a2a565b6020979097013560a08601525050929092166060909101525092915050565b8082018082111561073657634e487b7160e01b600052601160045260246000fd5b60408101610adf82856108fb565b8260208301529392505050565b6001600160a01b038581168252848116602083015260806040830152600090610b1585806109dd565b60606080860152610b2a60e086018284610a2a565b602088013560a087015260409097013560c08601525050929092166060909101525092915050565b634e487b7160e01b600052603260045260246000fdfea26469706673582212204233060512896d61652d44e370a329f5c222430dbaaa231a3e5bb8f22d1a1f2064736f6c63430008140033",
  "devdoc": {
    "errors": {
      "FailedDeployment()": [
        {
          "details": "The deployment failed."
        }
      ],
      "InsufficientBalance(uint256,uint256)": [
        {
          "details": "The ETH balance of the account is not enough to perform the operation."
        }
      ],
      "OwnableInvalidOwner(address)": [
        {
          "details": "The owner is not a valid owner account. (eg. `address(0)`)"
        }
      ],
      "OwnableUnauthorizedAccount(address)": [
        {
          "details": "The caller account is not authorized to perform an operation."
        }
      ]
    },
    "kind": "dev",
    "methods": {
      "owner()": {
        "details": "Returns the address of the current owner."
      },
      "renounceOwnership()": {
        "details": "Leaves the contract without owner. It will not be possible to call `onlyOwner` functions. Can only be called by the current owner. NOTE: Renouncing ownership will leave the contract without an owner, thereby disabling any functionality that is only available to the owner."
      },
      "transferOwnership(address)": {
        "details": "Transfers ownership of the contract to a new account (`newOwner`). Can only be called by the current owner."
      }
    },
    "version": 1
  },
  "userdoc": {
    "kind": "user",
    "methods": {
      "createBusinessProposal((string,uint256,uint256))": {
        "notice": "Creates a new BP proposal contract (ProposalType.BP)."
      },
      "createDAOProposal((string,uint256))": {
        "notice": "Creates a new DAO proposal contract (ProposalType.DAO)."
      }
    },
    "version": 1
  },
  "storageLayout": {
    "storage": [
      {
        "astId": 517,
        "contract": "contracts/ProposalFactory.sol:ProposalFactory",
        "label": "_owner",
        "offset": 0,
        "slot": "0",
        "type": "t_address"
      },
      {
        "astId": 8595,
        "contract": "contracts/ProposalFactory.sol:ProposalFactory",
        "label": "daoImplementation",
        "offset": 0,
        "slot": "1",
        "type": "t_address"
      },
      {
        "astId": 8597,
        "contract": "contracts/ProposalFactory.sol:ProposalFactory",
        "label": "bpImplementation",
        "offset": 0,
        "slot": "2",
        "type": "t_address"
      },
      {
        "astId": 8599,
        "contract": "contracts/ProposalFactory.sol:ProposalFactory",
        "label": "erc721Address",
        "offset": 0,
        "slot": "3",
        "type": "t_address"
      },
      {
        "astId": 8603,
        "contract": "contracts/ProposalFactory.sol:ProposalFactory",
        "label": "_proposals",
        "offset": 0,
        "slot": "4",
        "type": "t_array(t_struct(ProposalInfo)9360_storage)dyn_storage"
      }
    ],
    "types": {
      "t_address": {
        "encoding": "inplace",
        "label": "address",
        "numberOfBytes": "20"
      },
      "t_array(t_struct(ProposalInfo)9360_storage)dyn_storage": {
        "base": "t_struct(ProposalInfo)9360_storage",
        "encoding": "dynamic_array",
        "label": "struct ProposalInfo[]",
        "numberOfBytes": "32"
      },
      "t_enum(ProposalType)9350": {
        "encoding": "inplace",
        "label": "enum ProposalType",
        "numberOfBytes": "1"
      },
      "t_struct(ProposalInfo)9360_storage": {
        "encoding": "inplace",
        "label": "struct ProposalInfo",
        "members": [
          {
            "astId": 9352,
            "contract": "contracts/ProposalFactory.sol:ProposalFactory",
            "label": "id",
            "offset": 0,
            "slot": "0",
            "type": "t_uint256"
          },
          {
            "astId": 9355,
            "contract": "contracts/ProposalFactory.sol:ProposalFactory",
            "label": "proposalType",
            "offset": 0,
            "slot": "1",
            "type": "t_enum(ProposalType)9350"
          },
          {
            "astId": 9357,
            "contract": "contracts/ProposalFactory.sol:ProposalFactory",
            "label": "proposalAddress",
            "offset": 1,
            "slot": "1",
            "type": "t_address"
          },
          {
            "astId": 9359,
            "contract": "contracts/ProposalFactory.sol:ProposalFactory",
            "label": "creator",
            "offset": 0,
            "slot": "2",
            "type": "t_address"
          }
        ],
        "numberOfBytes": "96"
      },
      "t_uint256": {
        "encoding": "inplace",
        "label": "uint256",
        "numberOfBytes": "32"
      }
    }
  }
}